:020000040800F2
:10000000A80B0020E10100089B0A0008CF080008A7
:10001000970A00080D0700083B21000800000000B7
:10002000000000000000000000000000851D000826
:1000300099070008000000000F140008B51E000812
:10004000FB010008FB010008FB0100082118000863
:10005000FB010008FB010008FB010008FB01000890
:10006000FB010008FB010008FB010008FB01000880
:10007000FB010008FB010008FB010008FB01000870
:10008000FB010008FB010008FB010008FB01000860
:10009000FB010008FB010008FB010008FB01000850
:1000A000FB010008FB010008FB010008FB01000840
:1000B000FB010008FB010008FB010008FB01000830
:1000C000FB010008FB010008FB010008FB01000820
:1000D000FB010008191F0008FB010008FB010008D4
:1000E000FB010008FB010008FB010008FB01000800
:1000F000FB010008FB010008FB010008FB010008F0
:10010000FB010008FB010008FB010008FB010008DF
:10011000FB010008FB010008FB010008FB010008CF
:10012000FB010008FB010008FB010008FB010008BF
:1001300000F002F800F045F80AA090E8000C8244B4
:100140008344AAF10107DA4501D100F03AF8AFF291
:10015000090EBAE80F0013F0010F18BFFB1A43F0A5
:1001600001031847F03E0000103F0000103A24BF82
:1001700078C878C1FAD8520724BF30C830C144BF0C
:1001800004680C607047000000230024002500264E
:10019000103A28BF78C1FBD8520728BF30C148BFEA
:1001A0000B607047642900F09980782900F0D280B4
:1001B000632900F01782002070471FB51FBD10B5DE
:1001C00010BD00F031FA1146FFF7F7FF02F084FA94
:1001D00000F04FFA03B4FFF7F2FF03BC02F0EDF8B2
:1001E0000948804709480047FEE7FEE7FEE7FEE7CB
:1001F000FEE7FEE7FEE7FEE7FEE7FEE70448054907
:10020000054A064B70470000B91E0008310100087E
:10021000A8050020A80B0020A8070020A8070020A0
:10022000704700000FB4044910B503AA029800F00B
:10023000E5F910BC5DF814FB1800002070B5044609
:1002400085690068C10601D5302600E02026C00778
:1002500007D070BDD4E9012130469047206A401C88
:1002600020626D1EF6D570BD70B5044685690078B4
:10027000C00707D170BDD4E9012120209047206A32
:10028000401C20626D1EF6D570BD70B50C4605464B
:10029000012A05D02878800600D5EA69002302E00B
:1002A000012305E05B1C934202D2E05C0028F9D1F7
:1002B000A869E618C01AA861286A18442862284666
:1002C000FFF7BCFF04E0D5E9012114F8010B9047CA
:1002D000B442F8D32846FFF7C7FF70BD2DE9F041BF
:1002E0000646002410687529314616A510D0AFF3D4
:1002F0000080002802DA404213A507E031688A072F
:1003000001D512A502E0490704D511A5012401E099
:10031000AFF3008000210A2206F1240709E0B0FBB8
:10032000F2FCB0FBF2F302FB1C00303078541846AC
:10033000491C0028F3D123462A463046BDE8F04147
:1003400000F0D4B8000000002D0000002B000000D9
:100350002000000070B504460D4621461068AFF33A
:1003600000802188090502D50F4A7A4402E00E4A2E
:100370007A440E32002104F1240305E000F00F0658
:100380000009965D5E54491C0028F7D120780023AF
:10039000000704D5702D02D009B102231132204686
:1003A000BDE8704000F0A2B8AA3C00002DE9F05F63
:1003B000894604464FF0000ADFF824B1FB44C0F838
:1003C00020A02046E168884700287DD0252806D057
:1003D000D4E901219047206A401C2062F1E7002502
:1003E0005F462046E16888472028064607DB312E15
:1003F00005D2B81910F8200C08B10543F1E7A80799
:1004000001D525F00405C4F81CA00027C4F818A0E5
:100410002A2E09D0304601F0C9FF38B304EB870813
:10042000303EC8F8186019E059F8041B204604EB68
:1004300087029161E1688847012F064618D1E0697B
:10044000002820DA25F020051DE0D8F8180000EB80
:10045000800006EB40003038C8F818002046E168FC
:100460008847064601F0A2FF0028EED1012F0AD0EE
:100470002E2E08D12046E16888477F1C0646022FB1
:1004800045F02005C4DBA069002803DA404245F0AE
:100490000105A061E80701D025F01005A6B1A6F17D
:1004A0004100192802D8203645F400654A463146F5
:1004B000204625604D46FFF775FE60B1012807D044
:1004C000ED1D25F0070000E007E000F1080978E7DE
:1004D00005F1040975E730467AE7206ABDE8F09F28
:1004E000803C000070477047704770472DE9F04727
:1004F0000D4699469246044600F124080168880694
:1005000004D5E06921F01001216000E00120A8423B
:1005100001DD471B00E00027A1697A1902EB090001
:10052000081AA0612078C00602D42046FFF786FE94
:10053000002608E0D4E901211AF806009047206A55
:10054000401C761C20624E45F4DB2078C0060AD59C
:100550002046FFF773FE06E0D4E9012130209047E2
:10056000206A401C2062381EA7F10107F4DC07E076
:10057000D4E9012118F805009047206A401C206248
:10058000281EA5F10105F3DC2046FFF76DFE20785B
:10059000000602D50220BDE8F0870120FBE700003D
:1005A00001694A1C02610878704700B58FB0CDE937
:1005B00001310021059105497944CDE90310114627
:1005C0006846FFF7F3FE0FB000BD0000E5FFFFFF38
:1005D00010B5436913B1AFF3008001E0FFF755FE9A
:1005E000012010BD127800F124010A7000224A7027
:1005F0000122EDE711684FF0FF32E9E7074B70B5D4
:100600000D467B44FFF7D1FF0446284600F008F86A
:1006100010B14FF0FF3070BD204670BDB720000014
:10062000007B00F080007047754600F02BF8AE4666
:1006300005006946534620F00700854618B020B5EE
:10064000FFF7DCFDBDE820404FF000064FF000074B
:100650004FF000084FF0000B21F00701AC46ACE86A
:10066000C009ACE8C009ACE8C009ACE8C0098D46D7
:10067000704710B50446AFF300802046BDE8104037
:10068000FFF7A8BD00487047440500200A4880696C
:1006900040F00800084988610848006820F00F0011
:1006A000064908600846006840F003000860002022
:1006B000034908607047000000100240040C01402C
:1006C000A081214210B5012000F0E8FE002000F0DA
:1006D000E5FE10BD08B501460020009003480090DB
:1006E0000098084400900098008808BD006C004005
:1006F00008B500220092044A0092009A0244009237
:10070000009A116008BD0000006C004000BFFEE7C9
:100710002DE9F0410746884615460421052000F0E2
:100720002DF80021012001F0B7FD80210A2001F001
:100730002AFB002405E0395D092001F0ADFD601CB5
:10074000C4B24445F7DB0321012001F0A5FDFF24DD
:1007500000BF052001F0F2F90646601EC4B21CB1CC
:1007600006F004000028F4D0222001F0E7F92870F8
:10077000212001F0E3F96870BDE8F08170B505460D
:100780000C460026284601F0D9F9064626EA04015F
:10079000284601F081FD70BD70472DE9F041024609
:1007A00000250026002000230024002791F803C024
:1007B0000CF00F0591F803C00CF0100CBCF1000F09
:1007C00003D091F802C04CEA050591F800C0BCF1D5
:1007D000000F31D0146800202BE04FF0010C0CFA10
:1007E00000F3B1F800C00CEA03069E4220D183005A
:1007F0004FF00F0C0CFA03F7BC4305FA03FC4CEA6C
:10080000040491F803C0BCF1280F06D14FF0010C8D
:100810000CFA00FCC2F814C00AE091F803C0BCF165
:10082000480F05D14FF0010C0CFA00FCC2F810C0C3
:10083000401C0828D1D31460B1F800C0BCF1FF0FF0
:1008400034DD546800202EE000F1080C4FF0010860
:1008500008FA0CF3B1F800C00CEA03069E4221D15D
:1008600083004FF00F0C0CFA03F7BC4305FA03FCAE
:100870004CEA040491F803C0BCF1280F05D100F143
:10088000080C08FA0CF8C2F8148091F803C0BCF107
:10089000480F07D100F1080C4FF0010808FA0CF8D6
:1008A000C2F81080401C0828CED35460BDE8F08107
:1008B0000246002093680B400BB1012000E00020AD
:1008C00070474161704701617047C160704700BF68
:1008D000FEE710B501F07AF9072001F0EBF900F01E
:1008E000D7FC00F069FB022001F08CFD00F06AFBF0
:1008F000412000F0A1F810BD0146CA1701EB927229
:100900009210A1EB820292B9642091FBF0F200FBFD
:10091000121050B94FF4C87091FBF0F200FB1210A6
:1009200008B9012070470020FCE70120FAE7002009
:10093000F8E7000008B50121442000F09FFD1C20CD
:10094000ADF8000048208DF8030069460648FFF71F
:1009500024FF0120ADF8000028208DF8030069462F
:100960000248FFF71AFF08BD0018014000080140C7
:1009700010B5044614B101202C4908702B480078AA
:10098000002837D010212A48FFF792FF78B10821BC
:100990002748FFF78DFF50B104212548FFF788FF56
:1009A00028B101212348FFF783FF012822D10A2023
:1009B00001F028FD00201D49087010211C48FFF798
:1009C00077FF08B9012010BD08211948FFF770FF13
:1009D00008B90220F7E704211548FFF769FF08B9B5
:1009E0000320F0E701211348FFF762FF01281BD124
:1009F0000420E8E710210E48FFF75AFF012813D121
:100A000008210B48FFF754FF01280DD104210848A5
:100A1000FFF74EFF012807D101210648FFF748FFE5
:100A200010B90120014908700020CCE732000020F5
:100A3000001801400008014010B50446412C26D1A1
:100A400008210846FFF79AFE3D21112001F024FC01
:100A50008621172001F020FC7F21262001F01CFCBC
:100A60001E212D2001F018FC00212C2001F014FC87
:100A70008D212A2001F010FC3E212B2001F00CFCDE
:100A80004FF47A7001F0E4FC00F09CFA01E00120E0
:100A900010BD0020FCE700BFFEE7704770B50021E5
:100AA00000230F22C47804B3154C246804F4E064D6
:100AB000C4F5E064210AC1F10403CA40447804FA91
:100AC00003F184781440214309010E4C0678A155A6
:100AD000047804F01F050124AC4005786D11AD00C9
:100AE00005F1E025C5F8004109E0047804F01F0590
:100AF0000124AC40044D0678761145F8264070BDBF
:100B00000CED00E000E400E080E100E00249014378
:100B1000024A1160704700000000FA050CED00E089
:100B200070B500240CE0002506E00020074901EB29
:100B3000C5010855681CC5B2802DF6DB601CC4B227
:100B4000082CF0DB00F0ECF870BD0000380100204C
:100B5000F0B5144600267F2801DC3F2900DDF0BDFA
:100B60000B46CF1701EB5777FF10C7F10707FAB213
:100B7000CF1701EB5777FF10A1EBC707FDB2C5F107
:100B800007070123BB40DEB24CB10A4B03EBC003A5
:100B90009B5C3343074F07EBC007BB5408E0054B92
:100BA00003EBC0039B5CB343024F07EBC007BB548E
:100BB00000BFD4E73801002008B501214FF4987038
:100BC00000F05CFC4820ADF8000010208DF8030018
:100BD00003208DF8020069464A48FFF7DEFD4821F0
:100BE0004848FFF770FEFF20ADF800006946464810
:100BF000FFF7D3FDFF214448FFF765FE4FF4604047
:100C0000ADF8000069464148FFF7C7FD4FF4604169
:100C10003E48FFF758FE01203D4908603D49C1F8B4
:100C20008C0100203C490860642001F0EBFB0120AE
:100C30003A49C1F8BC010021AE2000F097F900212B
:100C4000D52000F093F90021502000F08FF9002109
:100C5000A82000F08BF900213F2000F087F9002147
:100C6000D32000F083F90021084600F07FF900212D
:100C7000402000F07BF900218D2000F077F9002161
:100C8000142000F073F90021202000F06FF90021FA
:100C9000022000F06BF90021A12000F067F900218B
:100CA000C02000F063F90021DA2000F05FF9002194
:100CB000122000F05BF90021812000F057F900219B
:100CC000EF2000F053F90021D92000F04FF9002166
:100CD000F12000F04BF90021DB2000F047F9002162
:100CE000302000F043F90021A42000F03FF900215A
:100CF000A62000F03BF90021AF2000F037F9FFF704
:100D00000FFF08BD00140140001001400020014009
:100D10009881224200802242BC01244200002442E9
:100D200070B500241CE004F1B001C8B2002100F04D
:100D30001DF90021084600F019F90021102000F0EB
:100D400015F9002508E0084901EBC501085D0121FE
:100D500000F00CF9681CC5B2802DF4DB601CC4B235
:100D6000082CE0DB70BD0000380100202DE9F84FB1
:100D700080460F4616461C46BA462046E31704EB4B
:100D80005373DB1021464FEAE47C04EB5C7C4FEAB2
:100D9000EC0CA4EBCC0CBCF1000F02D04FF0010C1A
:100DA00001E04FF0000C6344224604EBD27C4FEA92
:100DB0006C0C03FB0CF303F0FF0BA6F12000C6B292
:100DC00000254EE00C2C07D106EB4600274901EB2D
:100DD0008000405D009013E0102C05D1244800EB0A
:100DE0000610405D00900BE0182C07D106EBC60002
:100DF000204901EB8000405D009001E0BDE8F88FE4
:100E00004FF0000927E0009800F0800028B1394633
:100E100040460A9AFFF79CFE09E00A9808B90120AB
:100E200000E00020024639464046FFF791FE009858
:100E30004006000E0090781CC7B2A7EB0A00A04243
:100E400005D1574608F1010000F0FF0806E009F15E
:100E5000010000F0FF09B9F1080FD4DB00BF681CE6
:100E6000C5B25D45AEDB00BFC8E700004028000802
:100E7000B42C0008A43200082DE9FF4F81B00746CA
:100E800091461E460E9D4FF0000A002439E0301BAB
:100E9000401EC1B20A2001F077FCB9FBF0F00A2134
:100EA000B0FBF1F201FB1208BAF1000F16D1701E6F
:100EB000A04213DDB8F1000F0ED10120AB4605EBC7
:100EC000DB71491001FB04710090C8B22B4620224F
:100ED0000299FFF74BFF12E04FF0010A0120AB46E9
:100EE00005EBDB71491001FB04710090C8B208F1F9
:100EF0003001CAB22B460299FFF738FF00BF601CD1
:100F0000C4B2B442C3DB05B0BDE8F08FF8B5064605
:100F10000F4615461C4621E004EBD4714910C1F17F
:100F20008001B14202DA00263819C7B2C4F140008C
:100F3000B84204DA002006460746FFF7F1FD01201B
:100F400000902A78234639463046FFF70FFF2046A7
:100F500004EBD07106EB6101CEB26D1C28787E28BF
:100F600002DC28782028D7DAF8BD000070B50446E6
:100F70000D4621460948FFF7A8FC094805600020F6
:100F80000849C1F89801084908600120086004492F
:100F90000C3108600349C1F88C0170BD001001409C
:100FA0008C81224200802242B80124420149086219
:100FB0007047000000000E4210B503211420FFF717
:100FC000DDFB10BD10B5142000F0B8FD044604F0A0
:100FD000030018B90321142000F0D5FE10BDF0B5B0
:100FE00087B00546002708210846FFF7C7FB002108
:100FF0000D2001F051F980210E20FFF7BFFB932057
:101000008DF8040020208DF8050006A801AB02220F
:1010100001A900900C2000F045F8064686B900248E
:1010200007E001A8005D285501A8005D4740601C4D
:10103000C4B2042CF5DB01A8005DB84200D0022642
:1010400080210E2000F09FFE304607B0F0BD2DE954
:10105000F04188B004460D4616461F468DF80840FC
:101060008DF809503068CDF80A00B088ADF80E0050
:101070003868049007A802AB0C2202A900900E2049
:1010800000F010F88046B8F1000F05D1082000F0FC
:1010900055FD00F0080008B94FF00208404608B0BE
:1010A000BDE8F0812DE9FE4F0646884691469A46F6
:1010B000DDF830B0022002900020019000900C2E4C
:1010C00006D00E2E09D1122001901020009005E0CC
:1010D000772001903020009000E000BF00BF019811
:1010E00040F08001022001F0D7F880210420FFF7B2
:1010F00045FB0021012001F0CFF880210A2000F0FB
:1011000042FE002506E018F80510092001F0C4F899
:10111000681C85B24D45F6DB3146012001F0BCF874
:101120000C2E03D180210D2000F02DFE4FF4FA6526
:1011300000BF042000F002FD0446681E85B235B1F0
:1011400004F0010018B9009820400028F1D0802157
:101150000D20FFF713FB002D38D0062000F0EEFC29
:1011600000F01B0078BB002002900198204000F0A6
:10117000010008B1012002900C2E27D10A2000F0B6
:10118000DDFC04460C2000F0D9FC00F007072FB16D
:10119000601E07EBC0008BF8000003E0E006000EC5
:1011A0008BF8000004B90124122C00DD1224002564
:1011B00006E0092000F0C2FC0AF80500681C85B2B0
:1011C000A542F6DB02E0FFE70220029080210C201E
:1011D00000F0D9FD0021012001F05EF80298BDE881
:1011E000FE8FF0B587B005460E4630208DF804001E
:1011F0008DF805500DF10602022101A8FFF788FACB
:1012000006A801AB042201A900900C20FFF74AFFB9
:1012100007466FB99DF81800902809D1002404E012
:1012200001A8005D3055601CC4B2102CF8DB00E052
:101230000227384607B0F0BD70B588B005460C46A9
:1012400008210846FFF79AFA07210D2001F024F83B
:101250000321142000F097FD8DF8085007A802AB79
:10126000012202A900900C20FFF71CFF064656B988
:101270009DF81C00102806D19DF8080020709DF8EC
:101280000900607000E00226304608B070BD000022
:1012900010B54FF480411D48FFF715FB642001F0A5
:1012A000D7F84FF480411948FFF70BFB642001F099
:1012B000CFF84FF480411548FFF705FB642001F09B
:1012C000C7F80F21012000F0E7FF0F21012000F0F7
:1012D000E3FF0A2001F0BCF83D21112000F0DCFF03
:1012E0001E212D2000F0D8FF00212C2000F0D4FF7B
:1012F0008D212A2000F0D0FF3E212B2000F0CCFFD2
:101300004021152000F0C8FF002010BD001C014046
:1013100070B58CB0054693208DF8180070208DF8BC
:10132000190000208DF81E0000240BE0295D06AA9C
:10133000A01C11549DF81E00295D48408DF81E0028
:10134000601CC4B2042CF1DB0DF11F02072106A8BA
:10135000FFF7DEF908210846FFF710FA0BA801ABEA
:10136000092206A900900C20FFF79CFE06462EB924
:101370009DF82C00182801D1002600E002263046F6
:101380000CB070BDF0B587B006460F46A0208DF8B2
:1013900004008DF805600DF10602022101A8FFF797
:1013A000B7F906A801AB042201A900900C20FFF7B1
:1013B00079FE05464DB99DF81800042805D19DF821
:1013C000040000F00F000A2800D00225E5B900242F
:1013D00004E0385D01A90855601CC4B2102CF8DB8C
:1013E00005AA102101A8FFF793F906A801AB122264
:1013F00001A900900C20FFF755FE05461DB99DF888
:101400001800042800D00225284607B0F0BD704718
:1014100008B50121C82000F031F84FF46040ADF864
:10142000000010208DF8030003208DF802006946AB
:101430000848FFF7B2F94FF4C040ADF800000320B0
:101440008DF8020010208DF8030069460248FFF76E
:10145000A4F908BD000C0140001C014029B1064A56
:10146000D2690243044BDA6104E0034AD269824341
:10147000014BDA61704700000010024029B1064AB2
:1014800092690243044B9A6104E0034A92698243E1
:10149000014B9A617047000000100240014908604A
:1014A000704700004004424230B500210022002471
:1014B00000232D4D6D6805F00C0121B1042905D0E4
:1014C000082923D105E0294D056022E0274D05605C
:1014D0001FE0254D6D6805F47012234D6D6805F40D
:1014E0008034022505EB92421CB9214D554305601D
:1014F0000BE01D4D6D6805F400351DB11C4D5543C5
:10150000056002E0194D5543056002E0174D056086
:1015100000BF00BF144D6D6805F0F0010909154DBD
:101520006B5C0568DD4045600F4D6D6805F4E0615A
:10153000090A104D6B5C4568DD4085600A4D6D6899
:1015400005F46051C90A0B4D6B5C4568DD40C56010
:10155000054D6D6805F44041890B074D6B5CC5680E
:10156000B5FBF3F5056130BD0010024000127A00B2
:1015700000093D001E0000202E00002010B501468D
:101580000022002300204A11012A02D1094C2368BD
:1015900006E0022A02D1074C236A01E0054C636A87
:1015A00001F01F02012494401C400CB1012000E016
:1015B000002010BD0010024000210B4A11700A4AA1
:1015C000203A82F82010012802D0042808D103E034
:1015D0000121054A117004E00521034A117000E061
:1015E00000BF00BF704700002010024001490860A2
:1015F000704700003C0442420249096A0143014A23
:10160000116270470010024008B501210420FFF765
:1016100035FF1020ADF800008DF8030003208DF891
:10162000020069460348FFF7B8F810210148FFF7A8
:101630004AF908BD00080140024909888143014A6E
:1016400011807047042800400348008840F01000D3
:1016500001490880704700000428004003480088C2
:101660004FF6EF7108400149088070470428004098
:1016700070B500260024002500F07AF806463848A8
:10168000B6FBF0F437480088A0423CD035490C80C6
:1016900040F2B27510E02846FFF72EF940B1B4F5DC
:1016A000B77F02D3A4F5B77404E0681C85B206E0E6
:1016B000A4F26D14681C85B2B4F5B67FEBD800BFF8
:1016C00029488580002516E027498888FFF714F906
:1016D00030B1012D04D11D2C01D31D3C09E00CE0DB
:1016E0002248405DA04203D82048405D241A00E013
:1016F00003E0681C85B21C2CE6D200BF681C1A49A6
:101700008871601CC8711648B6FBF0F100FB1164CB
:101710004FF46160B4FBF0F0134908704FF461605E
:10172000B4FBF0F100FB11403C21B0FBF1F00E499D
:1017300048704FF46160B4FBF0F100FB11403C21B4
:10174000B0FBF1F201FB1200074988700B46DA7911
:101750009979988800F028F803490872002070BD34
:10176000805101004C000020380500200C4000088A
:10177000002103480188001F008841EA00407047AB
:101780001C28004001460020064A12880A40D0B2B8
:10179000044A121F12880A4012B108B1012000E069
:1017A0000020704704280040F0B503460C4615465B
:1017B000642093FBF0F0C6B2642093FBF0F700FBCB
:1017C0001730C1B2132E02DD01F16400C1B2084628
:1017D000CF1701EB977701EBA707BAB2072092FB6F
:1017E000F0F700FB172082B25719601EDFF82CC0FB
:1017F0001CF80000384482B2CF1701EB9777BF1076
:10180000A1EB87071FB9032C01DA501E82B2072013
:1018100092FBF0F700FB1720C0B2F0BD00400008BB
:101820000EB50120FFF7AEFF08B1FFF721FF022040
:10183000FFF7A8FFA0B10220FFF7FEFEFFF718FF99
:101840000A48807809494978084A1278CDE9002188
:1018500002900648C3798279818805A0FEF7E2FCF0
:101860000520FFF7E9FE00F015F90EBD3805002050
:10187000416C61726D2054696D653A25642D256453
:101880002D25642025643A25643A25640A00000069
:1018900029B1064A12880243044B1A8004E0034A25
:1018A00012888243014B1A807047000000280040D4
:1018B0001CB5002401214FF0C050FFF7CFFD0120DF
:1018C000FFF774FB0420FEF705FF45F25001884244
:1018D00040D0FEF7F7FE0120FFF76EFE04E0601C2B
:1018E000C4B20A2000F08EFD4120FFF747FE08B980
:1018F000FA2CF4DBFA2C01DB01201CBD4FF48070C4
:10190000FFF77AFE0120FFF771FE00F0C3F800F048
:10191000CBF801210846FFF7BBFF00F0BBF8FFF74B
:1019200093FE47F6FF7000F0A5F800F0B3F83720FB
:101930002A2111230E22CDE90010012140F2DF708F
:1019400000F026F8FFF78AFE45F250010420FEF76A
:10195000CFFE07E000F0A8F801210846FFF798FF46
:1019600000F098F800F004F8FFF782FE0020C4E7CA
:1019700008B503208DF8000000208DF801008DF8D7
:10198000020001208DF803006846FFF787F808BDC4
:101990002DE9F05F06460F4690469946DDE90AAB11
:1019A000002440F2B270864203DB40F633008642E8
:1019B00002DD0120BDE8F09F40F2B2750AE0284642
:1019C000FEF79AFF10B12048044401E01F48044488
:1019D000681C85B2B542F2DB781EC7B2002510E064
:1019E0001B48405D40F2A321484304EBC01430463D
:1019F000FEF782FF18B1012D01D116480444681C7E
:101A000085B2BD42ECDBA8F1010040F2A3214843BE
:101A100004EBC014C9EB4910C0EB092004EB00141F
:101A2000CAEB0A1004EB80045C4401214FF0C05063
:101A3000FFF714FD0120FFF7B9FA204600F00CF87B
:101A400000F028F80020B5E70085E2018033E101CD
:101A50000C4000088051010000B50246FFF7F4FD7C
:101A6000100C03490880091D0A80FFF7F7FD00BD2F
:101A70001828004000B50246FFF7E6FDC2F3034018
:101A800003490880091D0A80FFF7E8FD00BD00003A
:101A90000828004000BF0348008800F0200000280C
:101AA000F9D0704704280040074800884FF6F771C6
:101AB00008400549088000BF0348008800F008007E
:101AC0000028F9D0704700000428004038B50224EF
:101AD000FFF778FA00BF11495220FFF7ADFB04462B
:101AE000002CF8D1BCB902240D48FFF778FA04465F
:101AF00024B902240A48FFF70BFC04466CB90224FF
:101B00000748C0780090064883784278017805A09D
:101B1000FEF788FB01E0FFF74FFA38BD34000020E4
:101B200036000020BFA8BAC53A25303258253032D9
:101B30005825303258253032580D0A0070B5044609
:101B400000264FF400510B48FEF7BBFE7E2000EA52
:101B5000440040F08005284600F0C2F8002000F064
:101B6000BFF806464FF400510248FEF7ACFE30467F
:101B700070BD0000001C014010B50E49097800221C
:101B800002EB8101C8B20C49FFF72BFB0B4908702F
:101B90000846007830B90C23074A34210020FFF7AB
:101BA000B5F905E00C2306A234210020FFF7AEF9B9
:101BB00010BD000042000020180100204400002059
:101BC00072656164206572726F72210000B587B022
:101BD00001210820FFF752FC01218803FFF73EFC9A
:101BE0004FF46040ADF8180018208DF81B0003205A
:101BF0008DF81A0006A91848FEF7CFFD4FF4604192
:101C00001548FEF760FE0020ADF804004FF4827026
:101C1000ADF806000020ADF808000220ADF80A007B
:101C20000120ADF80C004002ADF80E003820ADF8F0
:101C300010000020ADF812000720ADF8140001A933
:101C4000064800F081F80121044800F063F8FF2005
:101C500000F006F807B000BD000C0140003800405D
:101C600070B50546002405E0601CC4B2C82C01DD37
:101C7000002070BD02210E4800F058F80028F3D073
:101C800029460B4800F05EF8002405E0601CC4B251
:101C9000C82C01DD0020ECE70121054800F046F8E2
:101CA0000028F3D0024800F04AF8C0B2E1E7000093
:101CB0000038004000F00700084909884FF6C77255
:101CC0001140064A11801146098841EAC00111807D
:101CD0001146098841F040011180704700380040EA
:101CE000014600BF0A48008800F002000028F9D031
:101CF0000748001D018000BF0548008800F0010072
:101D00000028F9D00248001D0088C0B270470000CA
:101D10000838004021B1028842F04002028004E00D
:101D200002884FF6BF731A400280704702460020B7
:101D300013890B400BB1012000E0002070470146E1
:101D4000888970478181704710B50022028802F4AB
:101D500041520B884C8823438C882343CC882343EF
:101D60000C8923434C8923438C892343CC89234307
:101D70001A430280838B4FF2FF74234083830B8AC4
:101D8000038210BD704770B505460C4600262846F4
:101D9000FFF7D4FE064646EA0401284600F07CFA26
:101DA00070BD10B500F002F810BD00000CB50020A9
:101DB000019000903348006840F480303149086059
:101DC00000BF3048006800F4003000900198401CCB
:101DD0000190009818B90198B0F5A06FF1D1294889
:101DE000006800F4003010B10120009001E00020F4
:101DF00000900098012843D12348006840F010006B
:101E0000214908600846006820F003000860084681
:101E1000006840F0020008601A48406819494860AC
:101E20000846406848600846406840F48060486062
:101E30000846406820F47C1048600846406840F43A
:101E4000E81048600846006840F08070086000BFF5
:101E50000C48006800F000700028F9D0094840687C
:101E600020F00300074948600846406840F002003F
:101E7000486000BF0348406800F00C000828F9D112
:101E80000CBD00000010024000200240042808D1D0
:101E90004FF0E021096941F004014FF0E0221161A7
:101EA00007E04FF0E021096921F004014FF0E02242
:101EB000116170477047000010B51348006840F08A
:101EC00001001149086008464068104908400E4961
:101ED0004860084600680E4908400B4908600846FB
:101EE000006820F4802008600846406820F4FE0066
:101EF00048604FF41F008860FFF753FF4FF0006009
:101F00000449086010BD0000001002400000FFF806
:101F1000FFFFF6FE08ED00E070B5002540F2255108
:101F20001C4800F049F810B31A4800F001F9C4B297
:101F30001948008800F40040C8B91748008800F428
:101F4000804060B10A2C03D000201349088020E0B3
:101F50001148008840F400400F49088019E00D2C1A
:101F600006D10D48008840F480400B49088010E0FD
:101F700009480088C0F30D0008490C540648008841
:101F8000401C0549088008460088C72801DD00205C
:101F9000088070BD003801401C0000205000002067
:101FA00021B1828942F40052828104E082894DF697
:101FB000FF731A408281704770B5024600240023E7
:101FC0000025002040F66A16B14200D100BFC1F3DF
:101FD000421501F01F03012606FA03F3012D02D179
:101FE0009689334006E0022D02D1168A334001E083
:101FF000968A33400C12012606FA04F416883440FF
:1020000013B10CB1012000E0002070BDF0B5034613
:10201000002400260025002040F66A17B94200D1AE
:1020200000BF1846C1F3421401F01F06012707FA4A
:1020300006F5012C01D10C3004E0022C01D1103046
:1020400000E014301AB107682F43076002E0076808
:10205000AF430760F0BD00002DE9F04786B00546AC
:102060000E460024A24600BFA1460027B08900B159
:1020700000BF2F462C8A4CF6FF700440F0880443C2
:102080002C82AC894EF6F3100440B08831890843A5
:10209000718908430443AC81AC8A4FF6FF40044089
:1020A000B0890443AC8201A8FFF7FEF91F488742BC
:1020B00002D1DDF810A001E0DDF80CA0A88900F441
:1020C000004040B10AEBCA0000EB0A103168490039
:1020D000B0FBF1F807E00AEBCA0000EB0A10316828
:1020E0008900B0FBF1F86420B8FBF0F0040120098E
:1020F000642101FB1089A88900F4004040B132201E
:1021000000EBC900B0FBF1F000F00700044308E069
:10211000322000EB09106421B0FBF1F000F00F0059
:1021200004432C8106B0BDE8F08700000038014070
:1021300001468888C0F30800704700BFFEE7000032
:1021400010B54848007800287DD100BF4648008877
:1021500000F400400028F9D04348008800F4004013
:1021600018B341480088C0F30D00404908800020A2
:102170003F4908800CE03F483D490988405C3E49A2
:102180003B4A128888543A480088401C38490880E5
:10219000374800880228EEDB0C23374A3421002020
:1021A000FEF7B4FE002030490880334841780078BB
:1021B000303800EB800001EB400030382F490870C8
:1021C00008460078032202EB8000C1B22C4B2D4A56
:1021D0006020FEF73CFF2C4908700846007848BB99
:1021E0000220087000BF2048008800F4004000284A
:1021F000F9D01D48008800F40040D8B11A48008882
:10220000C0F30D00194908800020194908800AE030
:10221000184817490988405C1C4908701448008810
:10222000401C13490880124800880128F0DB002078
:102230000D49088015480078722805D0772806D106
:1022400000F044F80AE00AE0FFF796FC06E00C23F1
:102250000FA234210020FEF759FE00BF01E0FEF777
:10226000ABFE10BD450000201C00002048000020EF
:1022700046000020500000203A00002042000020CC
:10228000360000203C0000204400002043000020D5
:102290006572726F7221000070B504460D464FF4EE
:1022A00000510948FEF70DFB7E2000EA4406304647
:1022B000FFF716FD2846FFF713FD4FF400510248C3
:1022C000FEF701FB70BD0000001C014010B500BF0F
:1022D0002648008800F400400028F9D023480088F0
:1022E00000F4004030B321480088C0F30D002049BD
:1022F000088000201F49088013E01F481D490988F5
:10230000405C1E491B4A128888541B48194A12888F
:10231000815C1BA0FDF786FF16480088401C15490C
:10232000088014480088124909888842E5DB0020AB
:102330000E49088013490978002202EB8101C8B2D6
:102340000E49FFF71FF8104908700846007830B9A9
:102350000C230EA234210020FEF7D8FD05E00C234B
:102360000EA234210020FEF7D1FD10BD1C0000207C
:1023700048000020460000205000002028010020D6
:102380002563000042000020440000207772697439
:10239000652066696E697368210000007772697450
:1023A00065206572726F72210000000030380A28C3
:1023B00001D2012070470020704700BF7047000025
:1023C00010B56FF00400FFF761FD0A4800680A4984
:1023D000B0FBF1F0094908700846007800EB4001B5
:1023E000C1EBC0104FF6FF7101EAC000044908803C
:1023F00010BD00000000002000127A001400002030
:10240000160000200146114A12884A434FF0E0238B
:102410005A6100229A611A46126942F001021A6159
:1024200000BF4FF0E022106900F001021AB100F481
:102430008032002AF5D04FF0E022126922F001022A
:102440004FF0E0231A6100229A61704716000020C5
:10245000002103E000BF00BF00BF491C8142F9D347
:102460007047000038B50024FEF75AFC7F4880789A
:10247000A04273D07D4884780C2000907B488288ED
:10248000042318210020FEF7F7FC0C2378A2182162
:102490000846FEF73BFD754880790A2811DA0C20C2
:1024A00001230022182100901E20FEF7E5FC0C20DD
:1024B00000906E488279012318212420FEF7DCFC6D
:1024C00008E00C200090694882790223182124201A
:1024D000FEF7D2FC0C2366A218212A20FEF716FD77
:1024E0006248C0790A2811DA0C2001230022182141
:1024F00000903020FEF7C0FC0C2000905B48C279B1
:10250000012318213620FEF7B7FC08E00C200090CC
:102510005648C279022318213020FEF7ADFC5348FB
:10252000007A072837D2DFE800F0040B121A2128BE
:102530002F000C234FA218214020FEF7E7FC2AE0D1
:102540000C234EA218214020FEF7E0FC23E00C23D0
:102550004CA218214020FEF7D9FC1CE085E00C239A
:102560004AA218214020FEF7D1FC14E00C234AA215
:1025700018214020FEF7CAFC0DE00C2349A21821C7
:102580004020FEF7C3FC06E00C2348A2182140209F
:10259000FEF7BCFC00BF00BF344800780A2811DAFF
:1025A000102001230022242100901046FEF764FC35
:1025B000102000902D480278012324210820FEF7E6
:1025C0005BFC08E0102000902848027802232421B8
:1025D0000020FEF751FC102337A224211846FEF7F5
:1025E00095FC224840780A2811DA102001230022A5
:1025F000242100901820FEF73FFC102000901B487B
:102600004278012324212020FEF736FC08E0102028
:10261000009016484278022324211820FEF72CFC53
:10262000102325A224212820FEF770FC0F48807873
:102630000A2811DA102001230022242100903020E2
:10264000FEF71AFC1020009008488278012324210C
:102650003820FEF711FC08E0102000900348827833
:10266000022324213020FEF707FC38BD3805002066
:102670002D00000053756E64617900004D6F6E642B
:102680006179000054756573646179005765646E03
:1026900065736461790000005468757273646179D0
:1026A000000000004672696461790000536174752E
:1026B00072646179000000003A00000000BF054A22
:1026C000128802F04002002AF9D0C2B2014B1B1D51
:1026D0001A8070470038014000240220FEF716FAE5
:1026E000FFF76EFEFEF794FE4FF4E13000F058F86D
:1026F000FEF720F9FEF7EDF8FEF786FFFDF7C6FFBF
:10270000FFF7D6F8FEF758FA102317A20021084663
:10271000FEF7FCFBFEF704FB25E0FFF7A3FE00201D
:10272000FEF726F90446012C19D1FFF7CFF9012055
:10273000114908606420FFF765FE00200F49C1F8C9
:10274000A0016420FFF75EFE00200D4908604FF4F1
:102750009670FFF757FE01200A49C1F89001022C3C
:1027600001D1FFF7EDFCD8E7436C617373417474DA
:10277000656E64656E636500A08121420080214220
:10278000900121420000214210B50246012000E0E4
:1027900050430B1EA1F10104E1B2F9D110BD0000BC
:1027A00010B586B00446012144F20400FEF766FE2F
:1027B0004FF40070ADF8140003208DF816001820B7
:1027C0008DF8170005A91C48FDF7E7FF4FF480605E
:1027D000ADF8140004208DF8170005A91648FDF780
:1027E000DCFF25208DF8000003208DF801008DF816
:1027F000020001208DF803006846FEF74FF90194AE
:102800000020ADF80800ADF80A00ADF80C00ADF8F6
:1028100010000C20ADF80E0001A90848FFF71CFCC1
:10282000012240F225510548FFF7F0FB0121034842
:10283000FFF7B6FB06B010BD0008014000380140AC
:102840000000000000000000000000000000000088
:102850003F40000000000000000030004000300059
:102860004000000009000BC03D000BC03D00090006
:1028700018C024407FE0224031800000180024C0AE
:102880001B000D803240018003801C4027401C80CB
:102890000740004010006000000000000000000041
:1028A0000000000000001F80204040200000402069
:1028B00020401F8000000000090006001F80060065
:1028C00009000000040004003F8004000400000030
:1028D0000010006000000000000000000400040080
:1028E000040004000400000000000040000000009C
:1028F00000000000002001C0060038004000000079
:102900001F802040204020401F8000000000104019
:102910003FC000400000000018C021402240244079
:102920001840000010802040244024401B800000FC
:1029300002000D0011003FC0014000003C80244017
:1029400024402440238000001F8024402440344041
:10295000038000003000200027C038002000000065
:102960001B802440244024401B8000001C0022C007
:10297000224022401F8000000000000008400000AC
:1029800000000000000000000460000000000000E3
:10299000000004000A0011002080404009000900E6
:1029A00009000900090000000000404020801100DB
:1029B0000A00040018002000234024001800000032
:1029C0001F802040274029401F400000004007C0D2
:1029D00039000F0001C0004020403FC02440244087
:1029E0001B8000001F8020402040204030800000DD
:1029F00020403FC0204020401F80000020403FC0BA
:102A000024402E4030C0000020403FC024402E0013
:102A1000300000000F001080204022403380020070
:102A200020403FC0040004003FC020402040204020
:102A30003FC02040204000000060202020203FC0F8
:102A40002000200020403FC024400B0030C0204028
:102A500020403FC020400040004000C03FC03C003C
:102A600003C03C003FC0000020403FC00C4023009A
:102A70003FC020001F802040204020401F800000D9
:102A800020403FC024402400180000001F80214047
:102A9000214020E01FA0000020403FC0244026002D
:102AA00019C0004018C0244024402240318000005A
:102AB000300020403FC020403000000020003F8018
:102AC000004000403F80200020003E0001C0070081
:102AD00038002000380007C03C0007C03800000064
:102AE000204039C0060039C0204000002000384096
:102AF00007C0384020000000304021C02640384048
:102B000020C00000000000007FE0402040200000C6
:102B1000000070000C000380004000000000402016
:102B200040207FE000000000000020004000200066
:102B30000000000000100010001000100010001035
:102B400000000000400000000000000000000280C3
:102B50000540054003C0004020003FC00440044041
:102B60000380000000000380044004400640000091
:102B700000000380044024403FC000400000038068
:102B80000540054003400000000004401FC02440F1
:102B900024402000000002E00550055006500420AB
:102BA00020403FC00440040003C000400000044037
:102BB00027C000400000000000100010041027E0B3
:102BC0000000000020403FC00140070004C0044056
:102BD000204020403FC000400040000007C00400EB
:102BE00007C0040003C00000044007C00440040004
:102BF00003C0004000000380044004400380000044
:102C0000041007F00450044003800000000003801B
:102C10000440045007F00010044007C002400400C4
:102C200004000000000006400540054004C000000C
:102C3000000004001F8004400040000004000780E2
:102C40000040044007C000400400070004C00180A9
:102C500006000400060001C0070001C006000000D5
:102C6000044006C0010006C0044000000410071024
:102C700004E00180060004000000044005C0064096
:102C8000044000000000000004007BE04020000041
:102C9000000000000000FFF00000000000004020E5
:102CA0007BE00400000000004000800040002000A5
:102CB00020004000000000000000000000000000B4
:102CC000000000000000000000001FCC000C00000D
:102CD0000000000000000800300060000800300024
:102CE00060000000022003FC1E20022003FC1E20C6
:102CF0000220000000000E1811043FFF10840C7821
:102D0000000000000F0010840F3800C007781884FE
:102D10000078000000780F8410C411240E9800E49D
:102D20000084000808006800700000000000000037
:102D30000000000000000000000007E01818200458
:102D400040020000000040022004181807E00000C4
:102D5000000000000240024001800FF001800240AC
:102D6000024000000080008000800FF8008000809A
:102D7000008000000001000D000E000000000000B7
:102D800000000000000000800080008000800080C3
:102D9000008000800000000C000C0000000000001B
:102DA000000000000000000600180060018006001E
:102DB00018002000000007F008081004100408089C
:102DC00007F000000000080408041FFC00040004D1
:102DD0000000000000000E0C101410241044118498
:102DE0000E0C000000000C181004110411041288CD
:102DF0000C700000000000E00320042408241FFCE5
:102E00000024000000001F98108411041104108891
:102E100010700000000007F00888110411041888E1
:102E20000070000000001C00100010FC13001C00CB
:102E30001000000000000E3811441084108411446A
:102E40000E38000000000700088C10441044088869
:102E500007F00000000000000000030C030C00005D
:102E6000000000000000000000010106000000005A
:102E7000000000000000008001400220041008084B
:102E80001004000002200220022002200220022062
:102E90000220000000001004080804100220014075
:102EA0000080000000000E001200100C106C10805A
:102EB0000F00000003E00C1813E4142417C40828C2
:102EC00007D000000004003C03C41C40074000E49D
:102ED000001C000410041FFC1104110411040E88CE
:102EE0000070000003E00C18100410041004100817
:102EF0001C10000010041FFC10041004100408082B
:102F000007F0000010041FFC1104110417C4100482
:102F10000818000010041FFC1104110017C0100055
:102F20000800000003E00C181004100410441C7882
:102F30000040000010041FFC1084008000801084FA
:102F40001FFC10040000100410041FFC10041004E7
:102F50000000000000030001100110011FFE10001E
:102F60001000000010041FFC110403801464181CDE
:102F70001004000010041FFC1004000400040004EE
:102F8000000C000010041FFC1F0000FC1F001FFCB1
:102F90001004000010041FFC0C04030000E01018D3
:102FA0001FFC100007F008081004100410040808A3
:102FB00007F0000010041FFC1084108010801080A7
:102FC0000F00000007F0081810241024101C080A35
:102FD00007F2000010041FFC1104110011C0113091
:102FE0000E0C000400000E1C110410841084104408
:102FF0001C3800001800100010041FFC1004100002
:103000001800000010001FF8100400040004100451
:103010001FF8100010001E0011E0001C007013804B
:103020001C0010001FC0103C00E01F0000E0103C1E
:103030001FC000001004180C163401C001C0163463
:10304000180C100410001C00130400FC13041C00D6
:10305000100000000804101C1064108413041C04E9
:10306000101800000000000000007FFE4002400237
:1030700040020000000030000C0003800060001CD3
:103080000003000000004002400240027FFE0000FA
:103090000000000000000000200040004000400050
:1030A00020000000000100010001000100010001FA
:1030B000000100010000400040002000000000006E
:1030C0000000000000000098012401440144014474
:1030D00000FC000410001FFC0088010401040088AB
:1030E0000070000000000070008801040104010469
:1030F000008800000000007000880104010411082D
:103100001FFC0004000000F8014401440144014494
:1031100000C800000000010401040FFC11041104A8
:1031200011001800000000D601290129012901C958
:103130000106000010041FFC0084010001000104CE
:1031400000FC000400000104190419FC0004000440
:10315000000000000000000300010101190119FE38
:103160000000000010041FFC0024004001B4010C0A
:10317000010400000000100410041FFC00040004FF
:1031800000000000010401FC0104010001FC010435
:10319000010000FC010401FC0084010001000104A5
:1031A00000FC0004000000F8010401040104010413
:1031B00000F80000010101FF0085010401040088FE
:1031C0000070000000000070008801040104010587
:1031D00001FF00010104010401FC0084010401005D
:1031E00001800000000000CC0124012401240124FE
:1031F0000198000000000100010007F8010401042B
:1032000000000000010001F80004000400040108AF
:1032100001FC0004010001800170000C001001603D
:103220000180010001F0010C003001C00030010CF0
:1032300001F0010000000104018C00740170018C98
:1032400001040000010101810171000E00180160FC
:103250000180010000000184010C0134014401845B
:10326000010C0000000000000000000001003EFC16
:10327000400240020000000000000000FFFF0000CC
:10328000000000000000400240023EFC010000007F
:10329000000000000000600080008000400040004E
:1032A00020002000000000000000000000000000DE
:1032B000000000000000000000000000000000000E
:1032C00000000000000000000000000000000000FE
:1032D000000000000000000F80380FFE380F80381B
:1032E00000000000000000000000000000000000DE
:1032F00000000100000600000C0000380000310052
:10330000000600000C000038000030000000000043
:103310000000000061800067F807F980006180000C
:1033200061800061800061800067F807F9800061BA
:103330008000000000000000000001C0E003E0F099
:103340000630080418081FFFFE040E080787F00364
:1033500081E000000000000001F000060C00040401
:1033600008060C7001F9C0000E00003BE000EC18EC
:10337000070808040C180003E00000000001E0004A
:1033800007F003F818041C0804170807E1D003C06D
:10339000E00023B0003C08002008000010000000FE
:1033A0000000000100003100003200001C0000009D
:1033B000000000000000000000000000000000000D
:1033C00000000000000000000000000000000000FD
:1033D000000000007F0001FFC00780F00C00181003
:1033E0000004200002000000000000200002100085
:1033F000040C00180780F001FFC0007F00000000EF
:1034000000000000000000000000000000000000BC
:103410004200006600006600003C0000180003FF48
:10342000C0001800003C000066000066000042007A
:10343000000000000800000800000800000800006C
:10344000080001FFC0000800000800000800000894
:103450000000080000000000000100003100003200
:1034600000001C0000000000000000000000000040
:10347000000000000000000000000000080000083C
:103480000000080000080000080000080000080014
:103490000008000008000008000000000000000014
:1034A0000000000038000038000038000000000074
:1034B000000000000000000000000000000000000C
:1034C00000000000000600001C00007000018000E9
:1034D0000E0000380000C0000700001C0000300093
:1034E00000000000000000007F8001FFE00380700A
:1034F0000600180400080400080600180380700184
:10350000FFE0007F800000000000000000000100DC
:103510000801000801000803FFF807FFF800000891
:10352000000008000008000000000000000000018A
:10353000C03802C05804009804011804021804049A
:1035400018061C1803F81801E0F80000000000003D
:1035500000000001C0E003C0F004000804080804F3
:10356000080806180803F41801E7F00001E000005D
:1035700000000000000000000300000D000011002A
:1035800000610000810803010807FFF80FFFF80041
:1035900001080001080000000000000000E007FC36
:1035A000D006080806100806100806100806183885
:1035B000060FF00607C00000000000000000000039
:1035C0003F8001FFE0038430020818041008041053
:1035D00008041008071810030FF00007C0000000CF
:1035E00000000000000003C0000700000600000605
:1035F00000F80607F806180006E0000700000600BD
:103600000000000000000001E1E003F7F0063410C4
:10361000041808041808040C08040C0806161803FB
:10362000F3F001C1E000000000000000F80003FC1E
:1036300030030638040208040208040208040410D7
:103640000308F001FFC0007F000000000000000040
:103650000000000000000000000000007038007052
:10366000380070380000000000000000000000007A
:10367000000000000000000000000000000000004A
:10368000301A00301C0000000000000000000000A4
:10369000000000000000000000000008000014000E
:1036A0000022000041000080800100400200200450
:1036B00000100800080000000000000021000021A8
:1036C0000000210000210000210000210000210055
:1036D0000021000021000021000000000000000087
:1036E00000000800080400100200200100400080D3
:1036F00080004100002200001400000800000000CB
:1037000000000003C00004C00004000008003808E6
:103710000F380808380810000C300007E00003C01C
:1037200000000000000000003F8000FFE003807008
:10373000020F1006708804C088048308047F880282
:10374000C09003012000FE400000080000180001A6
:10375000F8003E0801C20007020007E20000FE0078
:10376000001FC80001F80000380000080400080726
:10377000FFF807FFF804080804080804080804080C
:103780000806180803F41801E7F00001E000000043
:10379000000000003F8001FFE00380700200180479
:1037A0000008040008040008040010060020078038
:1037B000C000000004000807FFF807FFF804000835
:1037C00004000804000804001802001003807001BF
:1037D000FFE0007F8000000004000807FFF807FFFB
:1037E000F8040808040808040808040808043E0847
:1037F000040008060018010060000000040008072B
:10380000FFF807FFF804080804080004080004088B
:1038100000043E00060000060000018000000000D9
:10382000000000003F8001FFE003807006001804E4
:1038300000080402080402080203F00783F00002F3
:103840000000020004000807FFF807FFF80408085A
:10385000000800000800000800000800040808072D
:10386000FFF807FFF8040008000000000000040053
:103870000804000804000807FFF807FFF804000820
:103880000400080400080000000000000000000020
:10389000000600000700000104000104000104000C
:1038A0000307FFFE07FFFC04000004000004000003
:1038B00004000807FFF807FFF8040C0800180000D0
:1038C0003E0004C7800503C80600F8040038040061
:1038D0001800000804000807FFF807FFF8040008B4
:1038E00000000800000800000800000800000800B0
:1038F000001800006000000004000807FFF80780BF
:103900000807FC00007FC00003F80007C000780033
:1039100007800807FFF807FFF804000804000807FD
:10392000FFF807000803C00000E000003800001E98
:10393000000007000001C00400F007FFF8040000C9
:10394000000000007F8001FFE00380700600180483
:10395000000804000806001803003001FFE0007FA3
:103960008000000004000807FFF807FFF8040408BF
:10397000040400040400040400040400060C000312
:10398000F80001F000000000000000007F8001FF4F
:10399000E00380700600880400880400C806003C2C
:1039A00003003E01FFE6007F8400000004000807DA
:1039B000FFF807FFF8040808040800040C00040FCF
:1039C00000040BC00610F003F03801E00800000806
:1039D00000000001E0F803F030063010041808047D
:1039E0001808040C08040C080206180207F00781E6
:1039F000E000000001800006000004000004000058
:103A000004000807FFF807FFF8040008040000049A
:103A1000000006000001800004000007FFE007FF2F
:103A2000F00400180000080000080000080000086A
:103A300000000804001007FFE00400000400000676
:103A4000000007E00007FE00041FE00001F800008E
:103A5000380001E0043E0007C0000600000400003A
:103A600004000007E00007FFC0041FF80007C007BC
:103A7000F80007FF80043FF80007C004F8000700C3
:103A80000004000000000004000806001807C078C9
:103A900005F1C8003E00001F800463E80780F806B7
:103AA0000018040008000000040000060000078061
:103AB0000007E008047C08001FF80007F800180859
:103AC00004E00807000006000004000000000001F8
:103AD00000080600380400F80403E8040F08047C1A
:103AE0000805F00807C0080700180400600000007F
:103AF0000000000000000000000000000000003F87
:103B0000FFFE200002200002200002200002200010
:103B10000200000000000000000008000007000094
:103B200000C0000038000006000001C000003000A6
:103B3000000E000001000000000000000000200056
:103B4000022000022000022000022000023FFFFEAF
:103B50000000000000000000000000000000000065
:103B600000000000000800001000003000002000ED
:103B700000300000100000080000000000000000FD
:103B80000000010000010000010000010000010030
:103B90000001000001000001000001000001000020
:103BA00001000001000000000000000000200000F3
:103BB00020000010000010000000000000000000C5
:103BC00000000000000000000000000000F00019EC
:103BD000F8001B1800220800260800240800241002
:103BE000003FF8001FF80000080000180000000463
:103BF000000007FFF80FFFF0001818001008002061
:103C000008002008003018001FF0000FC00000005E
:103C10000000000007C0001FF0001830002008005E
:103C20002008002008003C08001C10000060000074
:103C3000000000000000000007C0001FF00038185E
:103C400000200800200800200804101007FFF80FCB
:103C5000FFF000001000000000000000000000075E
:103C6000C0001FF0001230002218002208002208B5
:103C7000003208001E10000E2000000000000000AE
:103C8000200000200800200801FFF803FFF80620AC
:103C9000080420080420080720000300000000009A
:103CA00000000000000E000E6E001FF30031B10096
:103CB00020B10020B1003191001F13002E1E002002
:103CC0000E00300000000004000807FFF80FFFF8A6
:103CD000001008002000002000002008003FF8002D
:103CE0001FF8000008000000000000000000002095
:103CF00008002008002008063FF8063FF8000008EA
:103D000000000800000800000000000000000000A3
:103D1000000000000300000300200100200100203B
:103D200003063FFE063FFC0000000000000000000C
:103D300000000004000807FFF80FFFF800018800EA
:103D40000300002FC00038F80020380020080000D1
:103D50000800000000000000000004000804000843
:103D600004000807FFF80FFFF80000080000080033
:103D70000008000000000000002008003FF8003F9D
:103D8000F8001008002000003FF8003FF80010087D
:103D9000002000003FF8003FF8000008000000008D
:103DA0002008003FF8003FF8001008001000002035
:103DB00000002008003FF8001FF800000800000085
:103DC0000000000007C0000FF000183000300800AD
:103DD0002008002008003008001830000FF000070D
:103DE000C0000000000000002001003FFF003FFF76
:103DF00000101100200900200800200800303800C1
:103E00001FF0000FC00000000000000007C0001FEE
:103E1000F0003818002008002008002009001011C8
:103E2000001FFF003FFF000001000000002008000D
:103E30002008002008003FF8003FF80008080010A4
:103E400008002008002000003000003000000000C2
:103E5000000000000000000C78001E18003308006D
:103E600023080021080021880021980030F0003844
:103E70006000000000000000200000200000200082
:103E800000FFF003FFF800200800200800200800D1
:103E90000030000000000000000000002000003F93
:103EA000F0007FF800001800000800000800201053
:103EB000003FF8007FF0000010000000000000004C
:103EC0002000003000003C00003F800023F0000094
:103ED00078000070002380003C00003000002000CB
:103EE000002000003C00003FE00023F80000E0005C
:103EF0002700003E00003FE00021F80001E0003E06
:103F000000002000000000002008002008003838D1
:103F1000003E680027800003C8002CF800383800F5
:103F200020180020080000000000000020000030E1
:103F300003003C01003F830023EC0000700023805D
:103F4000003C0000200000200000000000000000F5
:103F500000000038080020380020F80023E8002F77
:103F600088003E080038080020180000700000009B
:103F70000000000000000000000000000000000041
:103F800008000014001FF7FC3000062000020000AB
:103F90000000000000000000000000000000000021
:103FA000000000000000FFFFFF0000000000000014
:103FB00000000000000000000000000000002000E1
:103FC000023000061FF7FC0014000008000000008B
:103FD00000000000000000000000000000000018C9
:103FE00000006000004000004000002000001000C1
:103FF000000800000400000400000C000010000095
:104000000003030601040602050003051F1C1F1E12
:104010001F1E1F1F1E1F1E1F30313233343536370F
:1040200038394142434445464030580030313233FC
:1040300034353637383961626364656640307800FC
:104040000400000800000000000000020001000061
:104050001000000074400008000000205000000024
:104060006C010008C440000850000020580B0000FC
:104070008801000800A24A040000000000000000BF
:104080000102030406070809000000000000000008
:1040900000000000000001020304010203040607FF
:1040A00008090204060801000000000000000000EA
:1040B000FFFFFFFFFFFF0000020000000000000004
:0440C00000000000FC
:04000005080001E10D
:00000001FF
